:03000000020651A4
:0C065100787FE4F6D8FD75812002069841
:1008910054656D70657261747572653A20202043EC
:1008A10000542D4C3A3030432020542D483A3030FA
:0208B100430002
:10090700C10146000000000000000001112301138F
:090917000A011200C10001106F79
:040996007F19DFFEE8
:01099A00223A
:04099B007F6CDFFE90
:01099F002235
:05099000007FDADFFE2C
:01099500223F
:1007F700E4FED2D730D721C297120990D2971209B7
:1008070096A29712099B30D7EBAF060EEFD3940F42
:080817007480948040DED201E0
:01081F0022B6
:10084800E4FEFDEDC39408748094805016EEC31343
:10085800FEC29700D297003097034306801209968C
:050868000D80E0AF0669
:01086D002268
:02082000AE0721
:10082200E4FDEDFB3395E0FAC3EB9408EA648094AF
:10083200805012C29700EEC313FE9297120996D20D
:0508420097000D80DDB0
:01084700228E
:1006DD00900000E4F50FF50EF50DF50CC2011207B3
:1006ED00F73001097F007EFF7D7F7C47227FCC1292
:1006FD0008207F441208203097FD1207F77FCC1297
:10070D0008207FBE120820120848AC07120848E4E2
:10071D00F583F582EFAD04F583EDF582AE83FFAC85
:10072D0006EC12010EE4FBFA7980783D1200038F7E
:07073D000F8E0E8D0D8C0CD8
:010744002292
:10052B001206DDE4FBFA7920784112000312014731
:10053B008E148F15E4F516300104FBFAF922C3E58E
:10054B0014648094805011AF16051674002FF58239
:10055B00E43400F583742DF0C3E51464809480506B
:10056B0011E51515157002151414F4F515E514F4B1
:10057B00F514AE14AF157C037DE81201E1D3EF94B3
:10058B0000EE648094804014EF2430FFAE16051605
:10059B0074002EF582E43400F583EFF0AE14AF1542
:1005AB007C037DE81201E17E007F64CFCDCFCECC02
:1005BB00CE1201E1D3EF9400EE648094804014EFEF
:1005CB002430FFAE16051674002EF582E43400F5C8
:1005DB0083EFF0AE14AF157C007D641201E17E0059
:1005EB007F0ACFCDCFCECCCE1201E1EF2430FFAEC0
:1005FB0016051674002EF582E43400F583EFF0AF88
:10060B0016051674002FF582E43400F583742EF072
:10061B00AE14AF157C007D0A1201E1ED2430FFAE64
:10062B0016051674002EF582E43400F583EFF0AF57
:10063B0016051674002FF582E43400F583E4F07B85
:05064B00017A007900B6
:010650002287
:0C095A00C2AF53E71843E70143E78022D7
:0909870053E77FE4F5E6D2AF224C
:0B09720012095A75E64675E6B900222E
:1008B300AD07AC06C2AF8CE3EDF5E453E5F843E5D1
:0C08C30001120972120987D2AFAFE222C5
:10092100EE54FEFEF5E3E4F5E453E5F843E5031286
:050931000972020987B4
:1008CF00AB07AA06C2AF8AE3EBF5E453E5F843E5BD
:0C08DF00028DE2120972120987D2AF22CA
:1008EB007F007E20120921AD130F7E201208CFADA1
:0C08FB00110F1208CFAD107F090208CFCA
:1007C6007F097E201208B38F10EF3395E0FEEF64A9
:1007D6006F4E600C75106F75112375130A1208EBB6
:1007E6007F017E201208B38F137F021208B38F1188
:0107F60022E0
:10027A003095030203197F0A1209663095030203B7
:10028A00193095FDE51264017043C3E5119513FF1A
:10029A00E49400FED3EF9401EE648094804002055A
:1002AA0013E51375F00A842430FB7D017F041208DC
:1002BA006EE51375F00A84E5F02430FB7D017F05B5
:1002CA0012086E7FC51209367F0F120936E51264CD
:1002DA00027039C3E5119463748094805002051149
:1002EA00E51175F00A842430FB7D017F0D12086E3A
:1002FA00E51175F00A84E5F02430FB7D017F0E12CA
:10030A00086E7FCE1209367F0F1209361208EB30BB
:10031A0094030203B87F0A1209663094030203B8F1
:10032A003094FDE51264017039D3E51394007480AA
:10033A00948040021513E51375F00A842430FB7D7E
:10034A00017F0412086EE51375F00A84E5F0243083
:10035A00FB7D017F0512086E7FC51209367F0F12D9
:10036A000936E51264027043C3E5119513FFE4945C
:10037A0000FED3EF9401EE6480948040021511E5EB
:10038A001175F00A842430FB7D017F0D12086EE599
:10039A001175F00A84E5F02430FB7D017F0E120806
:1003AA006E7FCE1209367F0F1209361208EB2093A0
:1003BA00427F0A12096620933A3093FDD2A00512B1
:1003CA00D3E5129402748094804008E4F5127F0CFD
:1003DA00120936E5126401700A7FC51209367F0FC9
:1003EA00120936E5126402700A7FCE1209367F0FAF
:0403FA00120936228C
:1003FE001206DD1201478E088F097FE81209661278
:10040E0007C61207457BFF7A087991E4FDFF1207B4
:10041E00907BFF7A0879A27D01E4FF120790E51325
:10042E0075F00A842430FB7D017F0412086EE513FB
:10043E0075F00A84E5F02430FB7D017F0512086E0D
:10044E00E51175F00A842430FB7D017F0D12086ED4
:10045E00E51175F00A84E5F02430FB7D017F0E1264
:10046E00086E7FE812096612027A050BE50BAE0ADA
:10047E007002050A14D394C8EE94005003020523AB
:10048E00E5126003020523F50AF50B1206DD1201D3
:10049E00478E088F097C007D0A1201E1EF2430FBA4
:1004AE00E4FD7F0D12086EAE08AF097C007D0A12C6
:1004BE0001E1ED2430FBE4FD7F0E12086EAF137EDA
:1004CE0000D3E5099F7480F86508985006C290C263
:1004DE00B78002D290AD117C00C3E5099D7480F8FF
:1004EE006508984006C291D2B78002D291C3E50941
:1004FE009DEC6480F8E508648098500EE5099FEE47
:10050E006480F8E5086480985009B2A07F0A120949
:0D051E00668002D2A07F01120966020475FA
:0B096600007E027DC7DDFEDEFCDFF539
:010971002263
:0A097D007F011209367F05020966AA
:10093600C2A5C2A6D2A78F8000007F01120966C297
:02094600A722E6
:10094800D2A5C2A6D2A78F8000007F01120966C275
:02095800A722D4
:100745007F051209667F381209367F051209667F13
:10075500381209367F051209667F381209367F057A
:100765001209667F081209367F051209667F011294
:1007750009367F051209667F061209367F051209BB
:0B078500667F0C1209367F0502096632
:10086E008F0C8D0D8B0EE50D7006E50C2480800A25
:10087E00E50D64017008E50C24C0FF120936AF0EB9
:03088E0002094814
:100790008F0C8B0D8A0E890FED7006E50C2480807E
:1007A00004E50C24C0FF120936AB0DAA0EA90F12E6
:1007B00001C8FF60101209487401250FF50FE435D8
:0607C0000EF50E80E4229C
:10000300EC4D6011E8497017ED33EC3304600DE4F7
:10001300FCFFFEFD22E933E8330470F80201B3125A
:10002300017E58046009E4CC24815006285009025B
:1000330001BD2840030201BAC0E0EB4A7044B98015
:1000430006D0E0FB0201A9EF4E701CBD8008EBFF58
:10005300EAFEE9FD80EBE98DF0A4FEE5F00200EC99
:10006300E9CDF9EAFEEBFFEF89F0A4FCE5F0CE89D8
:10007300F0A42EFFE435F0CD89F0A42DFEE435F095
:100083008067EF4E7005BD80D780C3EF8BF0A4ACC3
:10009300F0EE8BF0A42CFCE435F0F8EF8AF0A42CFE
:1000A300E5F038FCE433CB8DF0A42CFCE5F03BF811
:1000B300EE8AF0A42CFCE5F038F8E433CF89F0A401
:1000C3002CFCE5F038CF3400CE89F0A42FFFE5F007
:1000D3003EFEE433C98DF0A42EFEE5F039CD8AF05F
:1000E300A42FFFE5F03EFEE43DFD33D0E0FB5007D7
:1000F3000BBB000F0201BDEC2CFCEF33FFEE33FE14
:06010300ED33FD02019541
:1001090075F020800E75F010800575F0087D007E71
:10011900007F003392D530D503120217EC3340101B
:10012900EF33FFEE33FEED33FDEC33FCD5F0ED227A
:0E013900E5F0247EA2D513CC92E7CDCEFF22B6
:10014700EDD2E7CD33EC3392D524814006E4FFFEB0
:10015700FDFC22FCE4CFCECDCC24E0501174FF800F
:10016700EDC3CC13CCCD13CDCE13CECF13CF0470AC
:07017700F030D5DE02021793
:10017E00E9D2E7C933E833F892D5EDD2E7CD33ECC7
:07018E0033FC5002B2D52240
:10019500EC30E7100FBF000C0EBE00080DBD0004CB
:1001A5000BEB6014A2D5EB13FCED92E7FD2274FF77
:1001B500FCFDFEFF22E480F8A2D574FF13FC7D80D0
:0301C500E480EFE4
:10065D000203FEE493A3F8E493A34003F68001F2B2
:10066D0008DFF48029E493A3F85407240CC8C3339E
:10067D00C4540F4420C8834004F456800146F6DF6D
:10068D00E4800B0102040810204080900907E47EED
:10069D00019360BCA3FF543F30E509541FFEE49362
:1006AD00A360010ECF54C025E060A840B8E493A329
:1006BD00FAE493A3F8E493A3C8C582C8CAC583CA54
:1006CD00F0A3C8C582C8CAC583CADFE9DEE780BE0C
:0109200000D6
:1001C800BB010689828A83E0225002E722BBFE0235
:0901D800E32289828A83E4932268
:1001E100C2D5EC30E709B2D5E4C39DFDE49CFCEE39
:1001F10030E715B2D5E4C39FFFE49EFE120225C38A
:10020100E49DFDE49CFC800312022530D507C3E484
:060211009FFFE49EFE22A7
:0E021700C3E49FFFE49EFEE49DFDE49CFC22F8
:10022500BC000BBE0029EF8DF084FFADF022E4CCBD
:10023500F875F008EF2FFFEE33FEEC33FCEE9DEC86
:10024500984005FCEE9DFE0FD5F0E9E4CEFD22EDCC
:10025500F8F5F0EE8420D21CFEADF075F008EF2F16
:10026500FFED33FD4007985006D5F0F222C398FD07
:050275000FD5F0EA22A4
:00000001FF
