:1005F60020202054656D703A303030632020202052
:1006060000483A30303063202020204C3A303030D9
:0206160063007F
:10068500C1800214000002120000020C0000020EDC
:0606950000230210001416
:1005AC001206367F381206511206367F0C1206518F
:1005BC001206367F061206511206367F01120651BC
:0705CC007F647E0002063A85
:100651008F1A120636C2A0C2A1D2A2851A80120632
:0A06610036C2A27F0A7E0002063AAC
:10066B008F1A120636D2A0C2A1D2A2851A80120608
:0A067B0036C2A27F0A7E0002063A92
:0605D300ED2430FB7D0267
:0205D9008B167F
:1005DB00ED64017007EF2480F5178005EF24C0F55B
:0B05EB0017AF17120651AF1602066B87
:060573008B168A1789189F
:10057900ED64017007EF2480F5198005EF24C0F5BB
:1005890019AF19120651AB16AA17A9181201C8FFFB
:10059900601012066B74012518F518E43517F51764
:0205A90080E4EC
:0105AB00222D
:040636007F0A7E00B9
:10063A00D3EF9400EE9400400D000000000000EF9C
:06064A001F70ED1E80EAA6
:010650002287
:06069C001206A21206A2E4
:1006A2000000000000000000000000000000002226
:1006B200C2917FF0DFFED2917F1EDFFEA291B34096
:0506C200FB7F04DFFED8
:0106C7002210
:10053000E4FEEEC394087480948050367D01A806D2
:10054000ED088002C333D8FCFDEF5205D3ED9400D3
:1005500074809480400CC2911206A2D29112069C23
:10056000800AC29112069C1206A2D2911206A20E15
:0205700080C049
:010572002266
:1004CB00E4FBFA1206B27FCC1205307F44120530E2
:1004DB001206B27FCC1205307FBE120530E4FDED63
:1004EB00C39410748094805027C2910000D2911253
:1004FB0006A2A291E4FE33FF12069CA80508800514
:10050B00C333CE33CED8F9FF4203EE42020D80CF78
:10051B00AD03AC02EC12010EE4FBFA7920783F122A
:05052B0000030201477E
:10027A00AE0CAF0D7C007D641201E1EF2430FB7DF2
:10028A00017F081205D9AE0CAF0D7C007D0A120160
:10029A00E17C007D0A1201E1ED2430FB7D017F093A
:1002AA001205D9AE0CAF0D7C007D0A1201E1ED24D6
:1002BA0030FB7D017F0A1205D9AE0EAF0F7C007D9F
:1002CA00641201E1EF2430FB7D027F021205D9AEF0
:1002DA000EAF0F7C007D0A1201E17C007D0A12013B
:1002EA00E17F031205D3AE0EAF0F7C007D0A120127
:1002FA00E17F041205D3AE10AF117C007D641201B8
:10030A00E1EF2430FB7D027F0C1205D9AE10AF114C
:10031A007C007D0A1201E17C007D0A1201E1ED24D4
:10032A0030FB7D027F0D1205D9AE10AF117C007D26
:0F033A000A1201E1ED2430FB7D027F0E0205D98E
:10061800D3EF9400EE940040147D7B7C00ED1D70B8
:0D062800011CED4C70F7EF1F70E61E80E323
:0106350022A2
:1003D50020951930007BC200C3E50F9480E50E948B
:1003E50000506E050FE50F7002050E222096203095
:1003F500005FC200E5112401FFE43510FED3E50FCF
:100405009FE50E9E404BE50F150F7002150E22203D
:10041500972130003CC200E50F24FFFFE50E34FFB5
:10042500FEC3E5119FE5109E50270511E5117002E9
:10043500051022209419300018C200D3E51194004C
:10044500E5109400400BE51115117002151022D22C
:02045500002283
:100457001205AC7BFF7A0579F67D01E4FF1205737F
:100467007BFF7A0679077D02E4FF1205731203D535
:100477001204CB7C007D0A1202368E0C8F0D1202FD
:100487007AC3E50D9511E50C95105002C2A3D3E58B
:100497000D950FE50C950E4002D2A3C3E50D9511FE
:1004A700E50C9510400BD3E50D950FE50C950E4027
:1004B70004C2B68002D2B6A2A392B77FC87E00124A
:0404C700061880A9EA
:10000300EC4D6011E8497017ED33EC3304600DE4F7
:10001300FCFFFEFD22E933E8330470F80201B3125A
:10002300017E58046009E4CC24815006285009025B
:1000330001BD2840030201BAC0E0EB4A7044B98015
:1000430006D0E0FB0201A9EF4E701CBD8008EBFF58
:10005300EAFEE9FD80EBE98DF0A4FEE5F00200EC99
:10006300E9CDF9EAFEEBFFEF89F0A4FCE5F0CE89D8
:10007300F0A42EFFE435F0CD89F0A42DFEE435F095
:100083008067EF4E7005BD80D780C3EF8BF0A4ACC3
:10009300F0EE8BF0A42CFCE435F0F8EF8AF0A42CFE
:1000A300E5F038FCE433CB8DF0A42CFCE5F03BF811
:1000B300EE8AF0A42CFCE5F038F8E433CF89F0A401
:1000C3002CFCE5F038CF3400CE89F0A42FFFE5F007
:1000D3003EFEE433C98DF0A42EFEE5F039CD8AF05F
:1000E300A42FFFE5F03EFEE43DFD33D0E0FB5007D7
:1000F3000BBB000F0201BDEC2CFCEF33FFEE33FE14
:06010300ED33FD02019541
:1001090075F020800E75F010800575F0087D007E71
:10011900007F003392D530D50312026CEC334010C6
:10012900EF33FFEE33FEED33FDEC33FCD5F0ED227A
:0E013900E5F0247EA2D513CC92E7CDCEFF22B6
:10014700EDD2E7CD33EC3392D524814006E4FFFEB0
:10015700FDFC22FCE4CFCECDCC24E0501174FF800F
:10016700EDC3CC13CCCD13CDCE13CECF13CF0470AC
:07017700F030D5DE02026C3E
:10017E00E9D2E7C933E833F892D5EDD2E7CD33ECC7
:07018E0033FC5002B2D52240
:10019500EC30E7100FBF000C0EBE00080DBD0004CB
:1001A5000BEB6014A2D5EB13FCED92E7FD2274FF77
:1001B500FCFDFEFF22E480F8A2D574FF13FC7D80D0
:0301C500E480EFE4
:03000000020349AF
:0C034900787FE4F6D8FD75812002039057
:1001C800BB010689828A83E0225002E722BBFE0235
:0901D800E32289828A83E4932268
:1001E100BC000BBE0029EF8DF084FFADF022E4CC02
:1001F100F875F008EF2FFFEE33FEEC33FCEE9DECCB
:10020100984005FCEE9DFE0FD5F0E9E4CEFD22ED10
:10021100F8F5F0EE8420D21CFEADF075F008EF2F5A
:10022100FFED33FD4007985006D5F0F222C398FD4B
:050231000FD5F0EA22E8
:10023600C2D5EC30E709B2D5E4C39DFDE49CFCEEE3
:1002460030E715B2D5E4C39FFFE49EFE1201E1C379
:10025600E49DFDE49CFC80031201E130D507C3E474
:060266009FFFE49EFE2252
:0E026C00C3E49FFFE49EFEE49DFDE49CFC22A3
:10035500020457E493A3F8E493A34003F68001F263
:1003650008DFF48029E493A3F85407240CC8C333A9
:10037500C4540F4420C8834004F456800146F6DF78
:10038500E4800B0102040810204080900685E47E7D
:10039500019360BCA3FF543F30E509541FFEE4936D
:1003A500A360010ECF54C025E060A840B8E493A334
:1003B500FAE493A3F8E493A3C8C582C8CAC583CA5F
:1003C500F0A3C8C582C8CAC583CADFE9DEE780BE17
:01069B00005E
:00000001FF
